:100000000C942A000C943F000C943F000C943F0089
:100010000C943F000C943F000C943F000C943F0064
:100020000C943F000C943F000C943F000C943F0054
:100030000C943F000C943F000C943F000C943F0044
:100040000C943F000C943F000C943F000C943F0034
:100050000C943F0011241FBECFE5D4E0DEBFCDBF1E
:1000600010E0A0E6B0E0E2EDF1E002C005900D92F4
:10007000A439B107D9F70E9493000C94E7000C94BF
:10008000000085BBC598C698C79A8FE99FE0019785
:10009000F1F700C00000C798089588E30E9441006E
:1000A0008FE99FE00197F1F700C0000081E00E9416
:1000B00041008FE99FE00197F1F700C0000082E066
:1000C0000E9441008FE99FE00197F1F700C0000016
:1000D00086E00E9441008FE99FE00197F1F700C0A0
:1000E000000080E80E9441008FE99FE00197F1F74E
:1000F00000C00000089585BBC59AC698C79A8FE9CD
:100100009FE00197F1F700C00000C7980895CF93D2
:10011000DF93EC018991882319F00E947B00FACFCC
:10012000DF91CF91089580E88ABB8FEF87BB84BBB6
:1001300081BB0E944D008FE99FE00197F1F700C05D
:1001400000008CE00E944100D1E114E20AE3C5E323
:10015000C89902C0C99B04C0CD9927C0CE9925C0BB
:10016000C89910C0C9990EC0CD9916C0CE9914C0B7
:10017000CB9B02C0CA990DC0CB9B02C0CA9B13C0C7
:10018000CA9B1CC0D2BB81E00E94410080E690E087
:1001900012C0CC990AC0F0CF12BB81E00E9441008E
:1001A0008BE690E008C0CC99EBCFC2BB81E00E9407
:1001B000410086E890E00E948700CACFCC99ECCF3E
:1001C00002BB81E00E94410087E790E0F4CFF89401
:0201D000FFCF5F
:1001D200476F696E67204C65667400476F696E678A
:1001E20020526967687400476F696E6720426163D5
:1001F2006B7761726400476F696E6720466F727732
:0402020061726400C1
:00000001FF
