:100000000C942A000C9447000C9447000C94470071
:100010000C9447000C9447000C9447000C94470044
:100020000C94A6000C9449000C9447000C944700D3
:100030000C9447000C9447000C9447000C94470024
:100040000C9447000C9447000C9447000C94470014
:100050000C94470011241FBECFE5D4E0DEBFCDBF16
:1000600010E0A0E6B0E0ECE0F2E002C005900D92F6
:10007000AC37B107D9F720E0ACE7B0E001C01D9282
:10008000A038B207E1F70E94CC000C9404010C9454
:1000900000001F920F920FB60F9211242F933F93DF
:1000A0005F936F937F938F939F93AF93BF93CF9300
:1000B000DF93EF93FF9380917C0090917D000196F8
:1000C000853091052CF490937D0080937C0004C0D2
:1000D00010927D0010927C0080917E0090917F00B4
:1000E00020917C0030917D00F901CAE0D0E01E161D
:1000F0001F0634F4BE010E94DC00CB013197F7CF1C
:10010000220F331FF901E05AFF4F208125BB6AE01F
:1001100070E00E94DC00FC01EE0FFF1FE859FF4F6A
:10012000808182BB82EB82BFFF91EF91DF91CF9103
:10013000BF91AF919F918F917F916F915F913F910F
:100140002F910F900FBE0F901F9018951F920F9236
:100150000FB60F9211242F938F939F9380917E005F
:1001600090917F000196803127E292072CF49093C2
:100170007F0080937E0004C010927F0010927E006A
:1001800086EE99EF9DBD8CBD9F918F912F910F9021
:100190000FBE0F901F9018958FEF81BB84BB86EE2A
:1001A00099EF9DBD8CBD1FBC85E08EBD89BF92EBD4
:1001B00092BF83BF7894FFCF97FB072E16F400946D
:1001C00007D077FD09D00E94F00007FC05D03EF46F
:1001D000909581959F4F0895709561957F4F0895F3
:1001E000AA1BBB1B51E107C0AA1FBB1FA617B7075D
:1001F00010F0A61BB70B881F991F5A95A9F7809579
:0C0200009095BC01CD010895F894FFCF4B
:10020C00F700FB00FD00FE003F0006005B004F0006
:0C021C0066006D007D0007007F006F0091
:00000001FF
