:100000000C942A000C9447000C9447000C94470071
:100010000C9447000C9447000C9447000C94470044
:100020000C9449000C9447000C9447000C94470032
:100030000C9447000C9447000C9447000C94470024
:100040000C9447000C9447000C9447000C94470014
:100050000C94470011241FBECFE5D4E0DEBFCDBF16
:1000600010E0A0E6B0E0E2E1F1E002C005900D9200
:10007000A437B107D9F720E0A4E7B0E001C01D9292
:10008000A637B207E1F70E947A000C9487000C941F
:1000900000001F920F920FB60F9211248F939F931F
:1000A000EF93FF93809174009091750001968A30D0
:1000B00091052CF4909375008093740004C0109205
:1000C000750010927400E0917400F0917500EE0FCD
:1000D000FF1FE05AFF4F808182BB86EE99EF9DBDE6
:1000E0008CBDFF91EF919F918F910F900FBE0F905C
:1000F0001F9018958FEF81BB86EE99EF9DBD8CBD4B
:100100001FBC85E08EBD84E089BF7894FFCFF89452
:02011000FFCF1F
:100112003F0006005B004F0066006D007D00070097
:040122007F006F00EB
:00000001FF
