:100000000C942A000C9447000C9447000C94470071
:100010000C9447000C9447000C9447000C94470044
:100020000C9447000C9447000C9447000C94760005
:100030000C9447000C9447000C9447000C94470024
:100040000C9447000C9447000C9447000C94470014
:100050000C94470011241FBECFE5D8E0DEBFCDBF12
:1000600011E0A8E6B1E001C01D92AA36B107E1F7A0
:1000700011E0A0E6B0E0ECE3FAE002C005900D92DA
:10008000A836B107D9F70E94AB000C941C050C945C
:1000900000008130910579F0823091057CF082304A
:1000A000910519F0039721F008958AE085BB089522
:1000B00086E085BB089589E085BB0895892B09F00A
:1000C000089585E085BB08951ABA80E487B987E86A
:1000D00086B9089597B18770987F892B87B9369A2A
:1000E0003699FECF24B135B1C90108951F920F9200
:1000F0000FB60F9211242F933F934F935F936F93FB
:100100007F938F939F93AF93BF93EF93FF9381EB75
:1001100082BF8091680190916901837090700E9404
:10012000490080916801909169010196909369015D
:1001300080936801FF91EF91BF91AF919F918F9153
:100140007F916F915F914F913F912F910F900FBED3
:100150000F901F9018951F938FEF84BB81EB82BF88
:1001600085E083BF81E089BF789483B78B7F83BFAD
:1001700083B78E7F83BF1ABA80E487B987E886B9D0
:1001800015E080E00E946A00A0E0B0E0BC01CD0173
:100190000E94770227ED33EA40E050E40E94E90034
:1001A0000E942302882777FD8095982F0E94C50121
:1001B00020E030E040EA51E40E949501181614F462
:1001C00013BFDFCF83B78B7F83BF83B78E7F83BFA0
:1001D000D8CFA8E1B0E0EFEEF0E00C94ED04698335
:1001E0007A838B839C832D833E834F835887B9E02A
:1001F000EB2EF12CEC0EFD1ECE010196B7010E94F4
:1002000014048E010F5E1F4FCE010596B8010E94A7
:1002100014042985223008F47EC03989323010F464
:10022000B8017CC08A859A8989278A87243011F091
:10023000223031F4231709F06EC060E670E06EC022
:10024000343039F41D861E861F86188A1C861B864C
:1002500004C0323021F484E08987B7015FC02B8568
:100260003C858B899C89281B390B3C872B87ED8427
:10027000FE840F851889AD88BE88CF88D88CEA1493
:10028000FB040C051D0540F4EE0CFF1C001F111FA4
:10029000215030403C872B8720E030E040E050E0A8
:1002A00080E090E0A0E0B0E460E070E0EA14FB04DD
:1002B0000C051D0540F0282B392B4A2B5B2BEA1827
:1002C000FB080C091D09B695A79597958795EE0C27
:1002D000FF1C001F111F6F5F7F4F6F31710531F7DA
:1002E000DA01C9018F779070A070B07080349105E9
:1002F000A105B10561F427FD0AC0E114F10401056F
:10030000110529F0205C3F4F4F4F5F4F20782D871C
:100310003E874F87588BBE01675F7F4FCB010E949E
:100320003F036896EAE00C940905A8E1B0E0EBE928
:10033000F1E00C94F10469837A838B839C832D8391
:100340003E834F83588789E0E82EF12CEC0EFD1E8A
:10035000CE010196B7010E9414048E010F5E1F4F5B
:10036000CE010596B8010E9414048985823040F0C0
:100370008989823028F0C701B8010E948C0401C02D
:100380008FEF6896E6E00C940D05A8E0B0E0EBEC8A
:10039000F1E00C94EE049B01AC0183E08983DA0167
:1003A000C9018827B7FD83959927AA27BB27B82EAF
:1003B000211531054105510519F482E089833AC0C0
:1003C0008823A9F0203080E0380780E0480780E8E3
:1003D000580729F460E070E080E09FEC30C0EE2424
:1003E000FF248701E21AF30A040B150B02C07901FE
:1003F0008A018EE1C82ED12CDC82CB82ED82FE8276
:100400000F831887C801B7010E94F00201971816E0
:10041000190684F4082E04C0EE0CFF1C001F111FE7
:100420000A94D2F7ED82FE820F831887C81AD90A80
:10043000DC82CB82BA82CE0101960E943F032896CD
:10044000E9E00C940A05ACE0B0E0E9E2F2E00C94DB
:10045000F50469837A838B839C83CE010196BE0168
:100460006B5F7F4F0E9414048D81823061F1823076
:1004700050F1843021F48E81882351F12EC02F81D8
:10048000388537FD20C06E812F3131051CF0662381
:10049000F9F023C08EE190E0821B930B29853A8509
:1004A0004B855C8504C056954795379527958A9569
:1004B000D2F76623B1F050954095309521953F4F86
:1004C0004F4F5F4F0EC020E030E040E050E009C0E9
:1004D0002FEF3FEF4FEF5FE704C020E030E040E058
:1004E00050E8B901CA012C96E2E00C941105A8E08D
:1004F000B0E0EDE7F2E00C94ED047B018C016115B6
:1005000071058105910519F482E0898360C083E05B
:1005100089838EE1C82ED12CDC82CB82ED82FE82D3
:100520000F831887C801B7010E94F002FC013197C0
:10053000F7FF3BC0222733272E1B3F0B57016801D3
:10054000022E04C0D694C794B794A7940A94D2F705
:1005500040E050E060E070E081E090E0A0E0B0E0DA
:1005600004C0880F991FAA1FBB1F2A95D2F70197B5
:10057000A109B1098E219F21A023B1230097A105D4
:10058000B10521F041E050E060E070E04A295B29CC
:100590006C297D294D835E836F8378878EE190E09F
:1005A0008E1B9F0B9C838B8312C0309781F00E2E85
:1005B00004C0EE0CFF1C001F111F0A94D2F7ED823D
:1005C000FE820F831887CE1ADF0ADC82CB821A8262
:1005D000CE0101960E943F032896EAE00C9409059B
:1005E000EF92FF920F931F937B018C0180E0E8163E
:1005F00080E0F80681E0080780E0180788F48FEFB4
:10060000E816F1040105110531F028F088E090E0CA
:10061000A0E0B0E017C080E090E0A0E0B0E012C041
:1006200080E0E81680E0F80680E0080781E018071F
:1006300028F088E190E0A0E0B0E004C080E190E024
:10064000A0E0B0E020E230E040E050E0281B390BB1
:100650004A0B5B0B04C016950795F794E7948A95AF
:10066000D2F7F701E859FF4F8081281B3109410972
:100670005109C9011F910F91FF90EF900895DF92EA
:10068000EF92FF920F931F93FC01E480F5800681A7
:100690001781D1808081823048F480E090E0A0E131
:1006A000B0E0E82AF92A0A2B1B2BA5C0843009F4F4
:1006B0009FC0823021F4EE24FF24870105C0E1149D
:1006C000F1040105110519F4E0E0F0E096C0628143
:1006D00073819FEF623879070CF05BC022E83FEF2F
:1006E000261B370B2A3131052CF020E030E040E0AA
:1006F00050E02AC0B801A701022E04C07695679584
:10070000579547950A94D2F781E090E0A0E0B0E0D9
:1007100004C0880F991FAA1FBB1F2A95D2F7019703
:10072000A109B1098E219F21A023B1230097A10522
:10073000B10521F081E090E0A0E0B0E09A01AB01CA
:10074000282B392B4A2B5B2BDA01C9018F7790704C
:10075000A070B07080349105A105B10539F427FF70
:1007600009C0205C3F4F4F4F5F4F04C0215C3F4F9B
:100770004F4F5F4FE0E0F0E02030A0E03A07A0E00C
:100780004A07A0E45A0710F0E1E0F0E079018A019D
:1007900027C06038710564F5FB01E158FF4FD801AF
:1007A000C7018F779070A070B07080349105A1055B
:1007B000B10539F4E7FE0DC080E490E0A0E0B0E0C0
:1007C00004C08FE390E0A0E0B0E0E80EF91E0A1F3D
:1007D0001B1F17FF05C016950795F794E7943196F0
:1007E00087E016950795F794E7948A95D1F705C0A9
:1007F000EE24FF248701EFEFF0E06E2F6795662768
:100800006795902F9F77D794DD24D7948E2F869568
:10081000492F462B582F5D29B701CA011F910F910F
:10082000FF90EF90DF900895FC01DB014081518142
:100830002281622F6F7770E0221F2227221F93816F
:10084000892F880F822B282F30E0991F9927991F15
:1008500011969C93119721153105A9F54115510564
:100860006105710511F482E037C082E89FEF1396AD
:100870009C938E9312979A01AB0167E0220F331F6E
:10088000441F551F6A95D1F783E08C930DC0220F4A
:10089000331F441F551F12968D919C9113970197FA
:1008A00013969C938E931297203080E0380780E057
:1008B000480780E4580758F314962D933D934D93C1
:1008C0005C93179708952F3F310579F44115510531
:1008D0006105710519F484E08C93089564FF03C0E9
:1008E00081E08C9312C01C9210C02F573040139699
:1008F0003C932E93129783E08C9387E0440F551F0F
:10090000661F771F8A95D1F7706414964D935D9397
:100910006D937C93179708951F93DC01FB019C91C5
:10092000923008F447C08081823008F443C094308C
:1009300051F411961C91843099F58181682F70E0F3
:10094000611B71093FC0843021F0923031F4823054
:10095000B9F18181882389F12DC011961C911197DD
:100960008230F1F081811817D9F412962D913C91C3
:100970001397828193818217930794F02817390780
:10098000BCF014968D919D910D90BC91A02D248169
:10099000358146815781281739074A075B0718F4C4
:1009A000112341F00AC082179307A407B50740F44A
:1009B000112319F061E070E005C06FEF7FEF02C016
:1009C00060E070E0CB011F9108952F923F924F920B
:1009D0005F926F927F928F929F92AF92BF92CF92CF
:1009E000DF92EF92FF920F931F93CF93DF93CDB7D8
:1009F000DEB7CA1BDB0B0FB6F894DEBF0FBECDBF50
:100A000009942A88398848885F846E847D848C8420
:100A10009B84AA84B984C884DF80EE80FD800C8129
:100A20001B81AA81B981CE0FD11D0FB6F894DEBF0C
:0C0A30000FBECDBFED010895F894FFCF7C
:100A3C000000000000000000000102020303030399
:100A4C000404040404040404050505050505050552
:100A5C000505050505050505060606060606060632
:100A6C00060606060606060606060606060606061A
:100A7C000606060606060606070707070707070702
:100A8C0007070707070707070707070707070707EA
:100A9C0007070707070707070707070707070707DA
:100AAC0007070707070707070707070707070707CA
:100ABC0007070707070707070808080808080808B2
:100ACC00080808080808080808080808080808089A
:100ADC00080808080808080808080808080808088A
:100AEC00080808080808080808080808080808087A
:100AFC00080808080808080808080808080808086A
:100B0C000808080808080808080808080808080859
:100B1C000808080808080808080808080808080849
:100B2C000808080808080808080808080808080839
:080B3C00080808080808080871
:00000001FF
