:100000000C942A000C943C000C943C000C943C0092
:100010000C943C000C943C000C943C000C943C0070
:100020000C943C000C943C000C943C000C943C0060
:100030000C943C000C943C000C943C000C943C0050
:100040000C943C000C943C000C943C000C943C0040
:100050000C943C0011241FBECFE5D4E0DEBFCDBF21
:1000600020E0A0E6B0E001C01D92A236B207E1F7A1
:100070000E9454000C949C000C9400008130910567
:1000800051F01CF4892B69F008958230910529F014
:10009000039729F0089589E005C08AE003C086E04F
:1000A00001C085E08BBB08958FEF8ABB14BAC4E012
:1000B000D0E09A99FECF8091600090916100BE01DE
:1000C0000E9474000E943E00809160009091610047
:1000D000019690936100809360008FE19EE4019708
:1000E000F1F700C00000E5CF97FB072E16F400944F
:1000F00007D077FD09D00E94880007FC05D03EF4A8
:10010000909581959F4F0895709561957F4F0895C3
:10011000AA1BBB1B51E107C0AA1FBB1FA617B7072D
:1001200010F0A61BB70B881F991F5A95A9F7809549
:0C0130009095BC01CD010895F894FFCF1C
:00000001FF
