:100000000C942A000C9447000C9447000C94470071
:100010000C9401040C9447000C9447000C94470086
:100020000C9447000C9447000C9447000C94470034
:100030000C9447000C9447000C9447000C94470024
:100040000C9447000C9447000C9447000C94470014
:100050000C94470011241FBECFE5D4E0DEBFCDBF16
:1000600010E0A0E6B0E0E0E8FEE002C005900D92EE
:10007000AE36B107D9F720E0AEE6B0E001C01D9280
:10008000A337B207E1F70E943A040C943E070C94A0
:100090000000672B09F09FC0009711F4D8980895CD
:1000A0008130910511F4D99808958230910511F4A9
:1000B000DA9808958330910511F4DB98089584301F
:1000C000910511F4DC9808958530910511F4DD98BF
:1000D00008958630910511F4DE98089587309105D2
:1000E00011F4DF9808958A30910511F4C0980895AD
:1000F0008B30910511F4C19808958C30910511F45D
:10010000C29808958D30910511F4C39808958E30EA
:10011000910511F4C49808958F30910511F4C59894
:1001200008958031910511F4C698089581319105A3
:1001300011F4C79808958431910511F4A898089591
:100140008531910511F4A99808958631910511F42E
:10015000AA9808958731910511F4AB9808958831D4
:10016000910511F4AC9808958931910511F4AD9879
:1001700008958A31910511F4AE9808958B31910557
:1001800011F4AF9808958E31910511F49098089567
:100190008F31910511F4919808958032910511F4F1
:1001A000929808958132910511F4939808958232BE
:1001B000910511F4949808958332910511F495985E
:1001C00008958432910511F496980895859709F061
:1001D0009FC097980895009711F4D89A0895813098
:1001E000910511F4D99A08958230910511F4DA9AA3
:1001F00008958330910511F4DB9A089584309105B8
:1002000011F4DC9A08958530910511F4DD9A089572
:100210008630910511F4DE9A08958730910511F426
:10022000DF9A08958A30910511F4C09A08958B30B1
:10023000910511F4C19A08958C30910511F4C29A78
:1002400008958D30910511F4C39A08958E3091056B
:1002500011F4C49A08958F30910511F4C59A089548
:100260008031910511F4C69A08958131910511F4F8
:10027000C79A08958431910511F4A89A089585319B
:10028000910511F4A99A08958631910511F4AA9A5D
:1002900008958731910511F4AB9A0895883191053D
:1002A00011F4AC9A08958931910511F4AD9A08952D
:1002B0008A31910511F4AE9A08958B31910511F4AC
:1002C000AF9A08958E31910511F4909A08958F3167
:1002D000910511F4919A08958032910511F4929A42
:1002E00008958132910511F4939A0895823291050F
:1002F00011F4949A08958332910511F4959A089512
:100300008432910511F4969A0895859709F4979A85
:100310000895CF93C82F80FF03C061E070E002C052
:1003200060E070E080E090E00E944900C1FF03C0FF
:1003300061E070E002C060E070E081E090E00E9467
:100340004900C2FF03C061E070E002C060E070E0FD
:1003500082E090E00E944900C3FF03C061E070E0CA
:1003600002C060E070E083E090E00E944900C4FFBA
:1003700003C061E070E002C060E070E082E290E003
:100380000E944900C5FF03C061E070E002C060E068
:1003900070E083E290E00E944900C6FF03C061E084
:1003A00070E002C060E070E084E290E00E944900EA
:1003B000C7FF03C061E070E002C060E070E085E26A
:1003C00090E0CF910C944900CF93C82F60E070E08B
:1003D0008AE190E00E9449008C2F0E94890161E02F
:1003E00070E08BE190E00E9449008FE99FE0019767
:1003F000F1F700C0000060E070E08BE190E00E9447
:1004000049008FE99FE00197F1F700C00000CF910C
:10041000089581E00C94E401813011F480E803C078
:10042000823021F480EC860F0C94E401089560E0A2
:1004300070E08AE190E00E94490060E070E08BE1AA
:1004400090E00E9449002FEF89EF90E0215080401A
:100450009040E1F700C0000080E30E94E4018FE1DA
:100460009EE40197F1F700C0000080E30E94E401E0
:100470008FE99FE00197F1F700C0000080E30E9440
:10048000E4018FE39CE90197F1F700C0000088E3E5
:100490000E94E4018CE00E94E40181E00E94E401FA
:1004A00086E00C94E401CF93C82F61E070E08AE10C
:1004B00090E00E9449008C2F0E94890161E070E069
:1004C0008BE190E00E9449008FE99FE00197F1F7EE
:1004D00000C0000060E070E08BE190E00E94490005
:1004E0008FE99FE00197F1F700C00000CF910895D8
:1004F000CF93DF93EC018991882319F00E94530276
:10050000FACFDF91CF9108958CE10C94E40188E15A
:100510000C94E401CF93C82F80FF03C061E070E02A
:1005200002C060E070E082E290E00E944900C1FFFA
:1005300003C061E070E002C060E070E083E290E040
:100540000E944900C2FF03C061E070E002C060E0A9
:1005500070E084E290E00E944900C3FF03C061E0C4
:1005600070E002C060E070E085E290E0CF910C9412
:100570004900CF93C82F60E070E08AE190E00E94CC
:1005800049008C2F0E948A0261E070E08BE190E0CC
:100590000E9449008FE99FE00197F1F700C0000039
:1005A00060E070E08BE190E00E9449008FE99FE0FD
:1005B0000197F1F700C00000CF91089580E00E94FC
:1005C000B90281E00C94B902CF93C62F813011F4A7
:1005D00080E803C0823069F480EC8C0F85958595A6
:1005E000859585950E94B9028C2F8F70CF910C94C0
:1005F000B902CF91089580E00E948A022FEF89EF1F
:1006000090E0215080409040E1F700C0000083E07E
:100610000E94B9028FE19EE40197F1F700C000004B
:1006200083E00E94B9028FED9BEA0197F1F700C0C9
:10063000000083E00E94B90282E00E94B90282E0D9
:100640000E94B90288E00E94B90280E00E94B902CB
:100650008CE00E94B90280E00E94B90286E00C940E
:10066000B902CF93C82F61E070E08AE190E00E9468
:1006700049008C2F85958595859585950E948A02E0
:1006800061E070E08BE190E00E9449008FE99FE01B
:100690000197F1F700C0000060E070E08BE190E0AE
:1006A0000E9449008FE99FE00197F1F700C0000028
:1006B0008C2F8F700E948A0261E070E08BE190E0E5
:1006C0000E9449008FE99FE00197F1F700C0000008
:1006D00060E070E08BE190E00E9449008FE99FE0CC
:1006E0000197F1F700C00000CF910895CF93DF93F9
:1006F000EC018991882319F00E943103FACFDF9130
:10070000CF91089581E00E94B9028CE00C94B90267
:1007100081E00E94B90288E00C94B902CF93DF9384
:1007200000D0CDB7DEB71F928F9380E690E09F9305
:100730008F93CE0101969F938F930E9454040F9044
:100740000F900F900F900F900F9080E090E00F901F
:100750000F90DF91CF910895CF93DF93EC018A81C1
:10076000873111F41A8202C08F5F8A8381E80E9468
:10077000E4018A810E948E03DF91CF910C9478026C
:10078000CF93DF93EC0189818B3329F4CE010E9452
:10079000AC03198202C08F5F898384E80E94E40160
:1007A00089810E948E03DF91CF910C947802CF93C0
:1007B000DF93EC0188818B3329F4CE010E94C003C2
:1007C000188202C08F5F888387E80E94E4018881D5
:1007D0000E948E03DF91CF910C947802DC01FB0123
:1007E0009C91808198130BC011969C9111978181E7
:1007F000981305C081E012962C919281291380E014
:1008000008951F920F920FB60F9211242F933F93CA
:100810004F935F936F937F938F939F93AF93BF9308
:10082000EF93FF9380916E0090916F008A3791054E
:1008300031F0019690936F0080936E000AC08EEEA7
:1008400084BD80E790E00E94D70310926F00109261
:100850006E00FF91EF91BF91AF919F918F917F912A
:100860006F915F914F913F912F910F900FBE0F901D
:100870001F9018958FEF81BB84BB8EEE84BD83E003
:1008800085BD80E489BF7894109270001092710049
:10089000109272000E94170281E80E94E40185E62E
:1008A00090E00E947802FFCFAEE0B0E0EAE5F4E02D
:1008B0000C9415070D891E8986E08C831A830983A1
:1008C0008FEF9FE79E838D83AE01475E5F4F6F89F9
:1008D000788DCE0101960E947604EF81F885E00FB5
:1008E000F11F10822E96E4E00C943107ABE0B0E0EB
:1008F000ECE7F4E00C9407076C017B018A01FC0132
:1009000017821682838181FFCCC1CE0101963C0102
:10091000F6019381F70193FD859193FF81917F010A
:10092000882309F4BAC1853239F493FD859193FF88
:1009300081917F01853229F4B60190E00E946D0615
:10094000E7CF912C212C312CFFE1F315D8F08B321D
:1009500079F038F4803279F08332A1F4232D2061CC
:100960001DC08D3261F0803369F4232D216016C0E3
:10097000832D8260382EE32DE4603E2E2AC0F32DB5
:10098000F8601DC037FC2DC020ED280F2A3040F044
:100990008E32B9F436FC81C1232D2064322E19C069
:1009A00036FE06C08AE0989E200D1124922E11C0BA
:1009B000EAE02E9E200D1124222EF32DF0623F2E10
:1009C00008C08C3621F4832D8068382E02C088360A
:1009D00041F4F70193FD859193FF81917F0181118E
:1009E000B3CF982F9F7D9554933028F40C5F1F4F01
:1009F0009FE399830DC0833631F0833771F08335DF
:100A000009F059C021C0F801808189830E5F1F4F12
:100A100088248394912C530113C02801F2E04F0ED7
:100A2000511CF801A080B18036FE03C0692D70E032
:100A300002C06FEF7FEFC5010E9462064C01820188
:100A4000F32DFF773F2E16C0280122E0420E511CE5
:100A5000F801A080B18036FE03C0692D70E002C0AD
:100A60006FEF7FEFC5010E9457064C01F32DF06830
:100A70003F2E820133FC1BC0822D90E08816990620
:100A8000B0F4B60180E290E00E946D062A94F4CFA3
:100A9000F50137FC859137FE81915F01B60190E049
:100AA0000E946D0621102A9421E0821A9108811477
:100AB000910471F7E8C0843611F0893641F5F801E8
:100AC00037FE07C060817181828193810C5F1F4F67
:100AD00008C060817181072E000C880B990B0E5F96
:100AE0001F4FF32DFF763F2E97FF09C090958095FD
:100AF000709561957F4F8F4F9F4FF0683F2E2AE092
:100B000030E0A3010E94A906882E861845C08537CB
:100B100031F4232D2F7EB22E2AE030E025C0932D14
:100B2000997FB92E8F36C1F018F4883579F0B5C0A9
:100B3000803719F0883721F0B0C0E92FE061BE2E70
:100B4000B4FE0DC0FB2DF460BF2E09C034FE0AC0F8
:100B5000292F2660B22E06C028E030E005C020E133
:100B600030E002C020E132E0F801B7FE07C060814A
:100B70007181828193810C5F1F4F06C060817181FA
:100B800080E090E00E5F1F4FA3010E94A906882E0F
:100B90008618FB2DFF773F2E36FE0DC0232D2E7FAE
:100BA000A22E891458F434FE0BC032FC09C0832DE8
:100BB0008E7EA82E05C0B82CA32C03C0B82C01C073
:100BC000B92CA4FE0FC0FE01E80DF11D8081803319
:100BD00021F49A2D997EA92E09C0A2FE06C0B394D5
:100BE000B39404C08A2D867809F0B394A3FC11C095
:100BF000A0FE06C0B21488F4280C922C9B180EC0DC
:100C0000B21460F4B60180E290E00E946D06B394E5
:100C1000F7CFB21418F42B1802C0982C212CA4FE84
:100C200010C0B60180E390E00E946D06A2FE17C0DE
:100C3000A1FC03C088E790E002C088E590E0B6011F
:100C40000CC08A2D867859F0A1FE02C08BE201C04B
:100C500080E2A7FC8DE2B60190E00E946D06891447
:100C600038F4B60180E390E00E946D069A94F7CFC5
:100C70008A94F301E80DF11D8081B60190E00E9495
:100C80006D068110F5CF222009F442CEB60180E234
:100C900090E00E946D062A94F6CFF6018681978136
:100CA00002C08FEF9FEF2B96E2E10C942307FC012B
:100CB0000590615070400110D8F7809590958E0F87
:100CC0009F1F0895FC016150704001900110D8F7FA
:100CD000809590958E0F9F1F08950F931F93CF932C
:100CE000DF93FB01238121FD03C08FEF9FEF2CC019
:100CF00022FF16C046815781248135814217530750
:100D000044F4A081B1819D012F5F3F4F3183208347
:100D10008C93268137812F5F3F4F3783268314C002
:100D20008B01EC01FB010084F185E02D0995892BF5
:100D3000E1F6D80116968D919C911797019617961A
:100D40009C938E931697CE01DF91CF911F910F91B7
:100D50000895FA01AA27283051F1203181F1E89451
:100D60006F936E7F6E5F7F4F8F4F9F4FAF4FB1E09E
:100D70003ED0B4E03CD0670F781F891F9A1FA11D99
:100D8000680F791F8A1F911DA11D6A0F711D811D9A
:100D9000911DA11D20D009F468943F912AE0269F5F
:100DA00011243019305D3193DEF6CF010895462FBE
:100DB0004770405D4193B3E00FD0C9F7F6CF462F9F
:100DC0004F70405D4A3318F0495D31FD4052419308
:100DD00002D0A9F7EACFB4E0A695979587957795C5
:100DE0006795BA95C9F700976105710508959B014C
:100DF000AC010A2E06945795479537952795BA95D5
:100E0000C9F7620F731F841F951FA01D08952F92AD
:100E10003F924F925F926F927F928F929F92AF928A
:100E2000BF92CF92DF92EF92FF920F931F93CF93D7
:100E3000DF93CDB7DEB7CA1BDB0B0FB6F894DEBF6E
:100E40000FBECDBF09942A88398848885F846E8494
:100E50007D848C849B84AA84B984C884DF80EE80DE
:100E6000FD800C811B81AA81B981CE0FD11D0FB6E7
:100E7000F894DEBF0FBECDBFED010895F894FFCF0B
:0E0E8000253032640030303A30303A303000E5
:00000001FF
